:020000040800F2
:1000000000000220C9260008350400083904000851
:100010003D040008410400084504000800000000F9
:10002000000000000000000000000000490400087B
:100030004D040008000000005104000855040008A9
:1000400011270008112700081127000811270008B0
:1000500011270008112700081127000811270008A0
:100060001127000811270008112700081127000890
:100070001127000811270008112700081127000880
:100080001127000811270008112700081127000870
:100090001127000811270008112700081127000860
:1000A0001127000811270008112700081127000850
:1000B0001127000811270008112700081127000840
:1000C0001127000811270008112700081127000830
:1000D0001127000811270008112700081127000820
:1000E0001127000811270008112700081127000810
:1000F0001127000811270008112700081127000800
:1001000011270008112700081127000811270008EF
:1001100011270008112700081127000811270008DF
:1001200011270008112700081127000811270008CF
:1001300011270008112700081127000811270008BF
:1001400011270008112700081127000811270008AF
:10015000112700081127000811270008112700089F
:10016000112700081127000811270008112700088F
:10017000112700081127000811270008112700087F
:080180001127000811270008F7
:1001A00010B52DED048BDFED119A9FED119A82B001
:1001B0009FED100A6424B0EE408AF7EE008A30EE1C
:1001C000280A002020EE290ABCEEC00A8DED010AA3
:1001D000BDF8041001F052FA38EE098A013CB0EE85
:1001E000480AE5D00AF0D2FAE9E700BF00E0FF4490
:1001F000FDAD803D000000002DE9F041264D274F68
:100200002DED028B9FED268ADFED268AA84600267B
:1002100025484FF4805100F083FF4FF4FA732B60B0
:100220002B68002BFCD120484FF4805100F07AFF5E
:100230004FF4FA73C8F800302B68002BFCD11B4C2C
:100240003B60B1EEC80AB4EE400AF1EE10FA1DD1DF
:10025000013CA0EE288AF4D13968154802F092FAE0
:100260003146144802F08EFAFCEEC87A124817EEB6
:10027000901A02F087FAB1EE480A052000F0A6F9BC
:1002800001460E48013602F07DFAC1E7B0EE480A99
:100290000AF05CFCDCE700BF400A0020440A0020B2
:1002A000C520803F0AD7233C000C024040420F008B
:1002B00024BF000834BF000844BF000854BF000832
:1002C000464B47481B68474A47492DE9F04FA0FB7A
:1002D00003039B0900244FF0070A013BF0258BB074
:1002E0005360082081F8235094600121C2F800A0D7
:1002F00000F00EFD01254FF470434FF003086946EE
:100300003A4800933A4E8DF806408DF807408DF834
:1003100004508DF8058000F079FE29464FF4003036
:1003200000F01AFD2846294600F0F2FC4FF00209C1
:100330004FF00C0B694630462E4F8DF805808DF836
:1003400006408DF80750CDF800B08DF8049000F00D
:100350005DFE30464946524600F0F2FE52463046B7
:10036000414600F0EDFE4FF4E133384602A9029316
:10037000ADF812B0ADF80C40ADF80E40ADF810403D
:10038000ADF8144000F054FF3846294600F0D6FF7F
:1003900029464FF0005000F0DFFC2846294600F0C7
:1003A000B7FC204606A9CDF824900694079401F0E6
:1003B00003F930233046694600938DF804808DF8A8
:1003C000074000F023FE2046294601F013F920469D
:1003D000214601F053F90BB0BDE8F08F100000206A
:1003E000D34D621010E000E000ED00E0000C024090
:1003F0000000024000440040054B1A6812B11A6820
:10040000013A1A60034A136801331360704700BF52
:10041000400A0020440A002082B0044A0190019B57
:1004200013601368002BFCD102B07047400A002013
:10043000704700BF704700BFFEE700BFFEE700BF88
:10044000FEE700BFFEE700BF704700BF704700BF78
:10045000704700BFFFF7D0BF39493A4BD1F8882029
:10046000394842F47002C1F888201A68002142F02D
:1004700001021A6099601A6822F0847222F48032B4
:100480001A6058601A6882B022F480221A60D9601B
:10049000009101911A6842F480321A601A4603E012
:1004A000009BB3F5A06F09D0136803F400330193E8
:1004B000009B01330093019B002BF1D0214B1B6863
:1004C00013F4003318BF01230193019B012B05D0C6
:1004D0001B4B4FF000629A6002B07047194B1B49EA
:1004E0001A6C1B4842F080521A640A6842F4804237
:1004F0000A609A689A609A6842F400429A609A6820
:1005000042F4A0529A6058601A6842F080721A60F1
:100510001A4611680B4B8901FBD50E4A40F2056162
:1005200011609A6822F003029A609A6842F002020F
:100530009A601A46936803F00C03082BFAD1C7E7B8
:1005400000ED00E000380240103000240070004050
:1005500008544007003C02401848836803F00C032D
:10056000042B28D0082B09D0154B144A1549926842
:10057000C2F303128A5CD3400B6170474368416841
:1005800013F4800F436818BF0F4801F03F020CBFFF
:100590000B49B0FBF2F1C3F3881308BFB1FBF2F1D2
:1005A00001FB03F2054B5B68C3F3014301335B00BE
:1005B000B2FBF3F3D9E7044BD7E700BF00380240A2
:1005C0000024F4000000002000127A0010B52DED88
:1005D000028BB5EEC00A86B00023F1EE10FAB0EE41
:1005E000408A0446ADF8143006D52D22B1EE408A7B
:1005F0008DF815308DF81420B0EE480A0AF07EF818
:1006000007EE904AF0EE408AF8EEE70AB2EE040AEE
:100610000AF0FAF878EE688AF6EE007AE8EE807A68
:100620000094019408490948FCEEE77A05AACDED4B
:10063000027AFCEEC87A17EE903A02F0D9F8034835
:1006400006B0BDEC028B10BD64BF0008EC080020B2
:1006500010C6000800000020EC080020EC08002074
:100660004C0A0020844641EA000313F003036DD1D5
:10067000403A41D351F8043B40F8043B51F8043B65
:1006800040F8043B51F8043B40F8043B51F8043B6C
:1006900040F8043B51F8043B40F8043B51F8043B5C
:1006A00040F8043B51F8043B40F8043B51F8043B4C
:1006B00040F8043B51F8043B40F8043B51F8043B3C
:1006C00040F8043B51F8043B40F8043B51F8043B2C
:1006D00040F8043B51F8043B40F8043B51F8043B1C
:1006E00040F8043B51F8043B40F8043B51F8043B0C
:1006F00040F8043B403ABDD2303211D351F8043BAC
:1007000040F8043B51F8043B40F8043B51F8043BEB
:1007100040F8043B51F8043B40F8043B103AEDD25A
:100720000C3205D351F8043B40F8043B043AF9D2AB
:10073000043208D0D2071CBF11F8013B00F8013B7E
:1007400001D30B8803806046704700BF082A13D38B
:100750008B078DD010F003038AD0C3F10403D21AA3
:10076000DB071CBF11F8013B00F8013B80D331F8D7
:10077000023B20F8023B7BE7043AD9D3013A11F857
:10078000013B00F8013BF9D20B7803704B784370C2
:100790008B78837060467047000000000000000006
:1007A000A2EB0300704700BF02780B78012A28BF34
:1007B0009A42F5D16DE9044540EA0104CDE90267AA
:1007C0006FF0000C4FEA447212B380EA010414F097
:1007D000070F6AD100F0070420F0070004F00305BA
:1007E00021F007014FEAC505F0E8042314F0040FD7
:1007F000F1E804670CFA05F462EA040266EA04060A
:100800000AD063EA0403624667EA0407664603E027
:10081000F0E80423F1E8046782FA4CF582EA060462
:10082000A4FA8CF46CBB83FA4CF583EA0705A5FAAD
:100830008CF595B950E9022351E9026782FA4CF52B
:1008400082EA0604A4FA8CF483FA4CF583EA0705DD
:10085000A5FA8CF52543DBD09CB92DBAB5FA85F401
:1008600024F0070427FA04F1DDE9026723FA04F310
:1008700003F0FF0001F0FF01FDE80445A0EB0100DB
:10088000704724BAB4FA84F424F0070426FA04F179
:10089000DDE9026722FA04F202F0FF0001F0FF0135
:1008A000FDE80445A0EB0100704714F0030F3CD1B4
:1008B00010F0030428D150F8082B51F8083B82FAB5
:1008C0004CF582EA0305A5FA8CF55DB950F8042CC5
:1008D00051F8043C82FA4CF582EA0305A5FA8CF53E
:1008E000002DE8D02DBAB5FA85F424F0070423FAD8
:1008F00004F122FA04F202F0FF0001F0FF01FDE82A
:100900000445A0EB010070474FEAC40420F0030047
:1009100050F8082B21F0030151F8083B0CFA04F4BD
:1009200062EA040263EA0403C9E710F003041AD080
:10093000A1EB040120F00300E40750F8042B06D0DB
:100940000FD28B785FFAA2F4E41A06D12BB1CB78E0
:100950005FFAB2F4E41A00D11BB920465DF8104BDF
:10096000704701F1040150F8042BCC0721F003017A
:1009700051F8043B48D824D222F07F4482FA4CF547
:1009800094EA1325A5FA8CF50AD165B951F8043B10
:1009900084EA0204B4EB036F0ED150F8042BEBE7AA
:1009A0004FEA132355E035F07F454DD10878FDE837
:1009B0000445C0F1000070474FEA126203F0FF03E4
:1009C00047E002EA1C4482FA4CF594EA1345A5FA82
:1009D0008CF50AD165B951F8043B84EA0204B4EB02
:1009E000034F0CD150F8042BEBE74FEA134330E0F0
:1009F00015EA1C4528D10B884FEA124229E04FEA3C
:100A0000124203EA1C4324E002F0FF0482FA4CF590
:100A100094EA1365A5FA8CF50AD165B951F8043B3F
:100A200084EA0204B4EB032F09D150F8042BEBE75E
:100A30004FEA13630DE015F0FF0F05D10B684FEA85
:100A4000122223F07F4304E04FF00000FDE804454C
:100A5000704712BA1BBA82FA4CF482EA0304A4FA71
:100A60008CF5B5FA85F402FA04F203FA04F34FEABE
:100A70001260FDE80445A0EB136070470A4B0B4879
:100A80001A68002142F001021A6099601A6822F087
:100A9000847222F480321A6058601A6822F480222C
:100AA0001A60D960704700BF00380240103000243F
:100AB000024B00221A701870704700BF02380240C3
:100AC00082B000230A4A019302E0B3F5A06F08D078
:100AD000136813F4003F019B03F101030193019B91
:100AE000F3D0034B1868C0F3404002B0704700BF1A
:100AF00000380240034A136823F0F80343EAC000B9
:100B00001060704700380240014B1860704700BF0A
:100B100000004742064B002201281A701A7005D0C7
:100B2000042802D105221A70704770471870704768
:100B300070380240014B1860704700BF800E47427A
:100B400030B4029C064D40EA046001435B08013B5F
:100B500041EA821242EA0340686030BC704700BF3D
:100B600000380240014B1860704700BF60004742E8
:100B70000907034B41EA8010C3F88400704700BFA7
:100B800000380240014B1860704700BF68004742C0
:100B9000014B1860704700BF4C004742034A9368FE
:100BA00023F0EC631943084390607047003802401B
:100BB000034A936823F078431943084390607047D1
:100BC00000380240034A936823F0030318439060FF
:100BD000704700BF00380240024B986800F00C00DC
:100BE000704700BF00380240034A936823F0F003C7
:100BF00018439060704700BF00380240034A936872
:100C000023F4E05318439060704700BF003802405F
:100C1000034A936823F4604343EAC000906070473E
:100C20000038024010B4214CA36803F00C03042BDD
:100C30001BD0082B1CD01E4B03601C4A1D49946816
:100C4000C4F303140C5DE34043609468C4F382244E
:100C50000C5D23FA04F4846092685DF8044BC2F3DF
:100C600042328A5CD340C3607047134B0360E4E7B1
:100C70006368616813F4800F636818BF0E4C01F05D
:100C80003F020CBF0A49B4FBF2F1C3F3881308BF5B
:100C9000B1FBF2F101FB03F2044B5B68C3F30143C8
:100CA00001335B00B2FBF3F30360C6E70038024098
:100CB0000024F4001400002000127A0000F44073B5
:100CC000B3F5407F09D108498B6820F0704223F4C6
:100CD000F81322F4407213438B60034A136FC0F37E
:100CE0000B0018431067704700380240014B186032
:100CF000704700BF3C0E4742014B1860704700BF71
:100D0000400E4742014B1860704700BF5C014742EC
:100D1000044A136B19B923EA0000106370471843A3
:100D20001063704700380240044A536B19B923EA34
:100D3000000050637047184350637047003802400A
:100D4000044A936B19B923EA000090637047184373
:100D50009063704700380240044A136C19B923EAC3
:100D60000000106470471843106470470038024058
:100D7000044A536C19B923EA0000506470471843C1
:100D80005064704700380240044A136919B923EAD5
:100D9000000010617047184310617047003802402E
:100DA000044A536919B923EA000050617047184397
:100DB0005061704700380240044A936919B923EA28
:100DC00000009061704718439061704700380240FE
:100DD000044A136A19B923EA0000106270471843E5
:100DE0001062704700380240044A536A19B923EA76
:100DF000000050627047184350627047003802404C
:100E0000044A136D19B923EA0000106570471843AE
:100E10001065704700380240044A536D19B923EA3F
:100E20000000506570471843506570470038024015
:100E3000044A936D19B923EA00009065704718437E
:100E40009065704700380240044A136E19B923EACE
:100E50000000106670471843106670470038024063
:100E6000044A536E19B923EA0000506670471843CC
:100E70005066704700380240044A137819B923EAD3
:100E80000000107070471843107070470D38024012
:100E90004309012B0BD0022B094B0CBF1A6F5A6F61
:100EA00000F01F0322FA03F000F001007047044B2A
:100EB0001A6800F01F0322FA03F000F001007047E7
:100EC00000380240024A536F43F080735367704703
:100ED00000380240034BDB68184214BF0120002099
:100EE000704700BF00380240014B1870704700BFC8
:100EF0000E38024008B53C4B984224D03B4B9842F8
:100F00002BD03B4B984232D03A4B984239D03A4B97
:100F1000984240D0394B984247D0394B98424ED0F6
:100F2000384B984255D0384B984200D008BD4FF40A
:100F300080700121FFF728FF4FF480700021BDE889
:100F40000840FFF721BF01200146FFF71DFF0120E8
:100F50000021BDE80840FFF717BF02200121FFF77D
:100F600013FF02200021BDE80840FFF70DBF042059
:100F70000121FFF709FF04200021BDE80840FFF729
:100F800003BF08200121FFF7FFFE08200021BDE874
:100F90000840FFF7F9BE10200121FFF7F5FE1020F1
:100FA0000021BDE80840FFF7EFBE20200121FFF738
:100FB000EBFE20200021BDE80840FFF7E5BE402001
:100FC0000121FFF7E1FE40200021BDE80840FFF7C6
:100FD000DBBE80200121FFF7D7FE80200021BDE885
:100FE0000840FFF7D1BE00BF0000024000040240ED
:100FF00000080240000C02400010024000140240B1
:1010000000180240001C02400020024000222DE98E
:10101000F0431346D1F800E001274FF0030C04E041
:101020000133102B02F1020228D007FA03F404EA7C
:101030000E05A542F4D1D0F800800E790CFA02F426
:10104000E44304EA0808C0F80080D0F8008006FAFB
:1010500002F9013E49EA0808012EC0F800800FD9C4
:10106000C568CE792C40C460C56806FA02F4013325
:101070002C43102BC46002F10202D6D1BDE8F083EC
:10108000D0F8089091F805808E7904EA0909C0F833
:101090000890D0F8089008FA02F848EA0908C0F861
:1010A0000880D0F8048028EA05054560D0F804805F
:1010B00006FA03F5ADB245EA08054560D0E700BF82
:1010C00000234FF6FF720260037143718371C37195
:1010D000704700BF82B04FF480330193019B0B43F4
:1010E0000193019BC361C161019BC361C36901930A
:1010F000C369019302B070470369194214BF01200C
:1011000000207047006980B2704700BF43691942F0
:1011100014BF012000207047406980B2704700BFB3
:1011200001837047418370470AB941837047018347
:10113000704700BF41617047436959404161704742
:10114000CB0800EB830001F0070110B48900046AAA
:101150000F238B4024EA03030362036A5DF8044B08
:101160008A4013430362704708B52B4B984219D04D
:101170002A4B984220D02A4B984229D0294B98429A
:1011800032D0294B98423BD0284B984200D008BD22
:1011900020200121FFF728FE20200021BDE8084083
:1011A000FFF722BE10200121FFF71EFE10200021B4
:1011B000BDE80840FFF718BE4FF400300121FFF7EB
:1011C00007FE4FF400300021BDE80840FFF700BEE5
:1011D0004FF480200121FFF7FBFD4FF48020002118
:1011E000BDE80840FFF7F4BD4FF400200121FFF7F0
:1011F000EFFD4FF400200021BDE80840FFF7E8BDF7
:101200004FF480100121FFF7E3FD4FF4801000211F
:10121000BDE80840FFF7DCBD00100140004400407D
:1012200000480040004C00400050004000140140C5
:10123000028A8B88F0B592B2CE880F8904460D469B
:1012400022F440523243A88949892282A2893B4331
:1012500092B20B4322F4B05222F00C029BB2134321
:10126000A381A38A9BB223F44073034385B0A38276
:101270006846FFF7D7FC1D4B9C4229D003F58063DD
:101280009C4225D0029AA389A6891BB2002B2B6809
:1012900002EB8202B4BF5B009B0002EB8202B2FB56
:1012A000F3F0134A36B2A2FB00356D096423002E19
:1012B00005FB13034FEA05150CDB1B013233A2FBC0
:1012C0000323C3F343132B439BB2238105B0F0BD2B
:1012D000039AD8E7D9003231A2FB0131C1F342129F
:1012E00042EA05039BB2238105B0F0BD0010014026
:1012F0001F85EB5100234FF416510C2201604281EF
:101300008380C38003818381704700BF30B40A8823
:101310004D888C88038AC9882A4322430A439BB29A
:1013200092B223F470631343038230BC704700BF52
:101330000023038043808380C3807047838929B959
:1013400023F400531B041B0C838170479BB243F4AE
:1013500000538381704700BF038B03F47F430383F3
:10136000038B9BB219430183704700BF838919B96E
:10137000C3F30E03838170476FEA43436FEA53431D
:101380009BB28381704700BF838A29B923F400632D
:101390001B041B0C838270479BB243F4006383825F
:1013A000704700BFC1F30801818070478088C0F397
:1013B00008007047038A23F00F031B041B0C0382F1
:1013C000038A9BB219430182704700BF838929B900
:1013D00023F002031B041B0C838170479BB243F074
:1013E00002038381704700BF838923F400631B04D9
:1013F0001B0C838183899BB219438181704700BF95
:10140000038A23F020031B041B0C0382038A9BB274
:1014100019430182704700BF038A29B923F480432E
:101420001B041B0C038270479BB243F4804303826E
:10143000704700BF83899BB243F0010383817047EB
:10144000838A29B923F008031B041B0C838270478D
:101450009BB243F008038382704700BF038BDBB26B
:101460000383038B9BB243EA01210183704700BFD2
:10147000838A29B923F020031B041B0C8382704745
:101480009BB243F020038382704700BF838A29B94F
:1014900023F010031B041B0C838270479BB243F0A4
:1014A00010038382704700BF838A23F004031B0468
:1014B0001B0C8382838A9BB219438182704700BFD1
:1014C000838A29B923F002031B041B0C8382704713
:1014D0009BB243F002038382704700BF838A9BB2B2
:1014E0001AB923EA0101818270471943818270474A
:1014F00010B401F01F04C1F342110123012903FAC2
:1015000004F311D002290CBF1030143032B9026834
:101510005DF8044B22EA03030360704702685DF83C
:10152000044B1343036070470C30EFE70388194204
:1015300014BF012000207047C94389B20180704761
:10154000C1F3421210B4012301F01F04012A03FA6F
:1015500004F316D0022A0CBF028A828A92B2134088
:10156000028892B24BB1090A01238B40134214BF87
:10157000012000205DF8044B704718465DF8044BCD
:101580007047828992B21340EAE700BF090A01233B
:101590008B40DB439BB20380704700BF08B54FF020
:1015A00000500121FFF714FC4FF000500021BDE86E
:1015B0000840FFF70DBC00BFF0B491E8C000094D32
:1015C0008C68CB682A6847EA06010C4340F6FE7136
:1015D00023438140834022EA010213432B60F0BC85
:1015E000704700BF007400400023036043608360C5
:1015F000C360704739B9074901230A68834022EA6A
:1016000003030B607047034901230A6883401343B7
:101610000B6070470074004041B9084900094A68EE
:101620000123834022EA03034B607047034900090A
:101630004A680123834013434B60704700740040A5
:10164000054A536818B923F003035360704743F009
:1016500003035360704700BF0074004032B9064A6C
:101660001368814023EA010111607047024A136840
:1016700081401943116070470074004082B000221D
:10168000054B01920193019B083318440190019B83
:10169000196002B0704700BF0074004082B00022A1
:1016A000054B01920193019B143318440190019B57
:1016B000196002B0704700BF007400400828044B56
:1016C0000CBF42EA012242EA0142C250704700BF09
:1016D0002074004082B00022064B01920193019BCE
:1016E0002C3303EB90000190019B186880B202B08C
:1016F000704700BF0074004041B908494FF480535F
:101700000A68834022EA03030B60704703494FF4E1
:1017100080530A68834013430B6070470074004095
:1017200032B9064A1368814023EA0101116070470B
:10173000024A1368814019431160704700740040E9
:10174000034B5B6B8140194214BF0120002070479E
:1017500000740040014B81405963704700740040A1
:10176000054B1A685B6B814011EA030003D01142FC
:1017700014BF01200020704700740040014B8140DD
:10178000596370470074004081F0004102E000BFDF
:1017900083F0004330B54FEA41044FEA430594EA31
:1017A000050F08BF90EA020F1FBF54EA000C55EA6C
:1017B000020C7FEA645C7FEA655C00F0E2804FEA3D
:1017C0005454D4EB5555B8BF6D420CDD2C4480EA1F
:1017D000020281EA030382EA000083EA010180EA4F
:1017E000020281EA0303362D88BF30BD11F0004F9D
:1017F0004FEA01314FF4801C4CEA113102D04042D3
:1018000061EB410113F0004F4FEA03334CEA13330D
:1018100002D0524263EB430394EA050F00F0A78025
:10182000A4F10104D5F1200E0DDB02FA0EFC22FA20
:1018300005F2801841F1000103FA0EF2801843FA14
:1018400005F359410EE0A5F120050EF1200E012A05
:1018500003FA0EFC28BF4CF0020C43FA05F3C01843
:1018600051EBE37101F0004507D54FF0000EDCF1BC
:10187000000C7EEB00006EEB0101B1F5801F1BD365
:10188000B1F5001F0CD349085FEA30004FEA3C0C69
:1018900004F101044FEA445212F5800F80F09A805F
:1018A000BCF1004F08BF5FEA500C50F1000041EB63
:1018B000045141EA050130BD5FEA4C0C404141EB67
:1018C000010111F4801FA4F10104E9D191F0000F8E
:1018D00004BF01460020B1FA81F308BF2033A3F111
:1018E0000B03B3F120020CDA0C3208DD02F1140C08
:1018F000C2F10C0201FA0CF021FA02F10CE002F143
:101900001402D8BFC2F1200C01FA02F120FA0CFC3B
:10191000DCBF41EA0C019040E41AA2BF01EB045184
:10192000294330BD6FEA04041F3C1CDA0C340EDC82
:1019300004F11404C4F1200220FA04F001FA02F3C5
:1019400040EA030021FA04F345EA030130BDC4F183
:101950000C04C4F1200220FA02F001FA04F340EA78
:101960000300294630BD21FA04F0294630BD94F029
:10197000000F83F4801306BF81F480110134013D10
:101980004EE77FEA645C18BF7FEA655C29D094EA81
:10199000050F08BF90EA020F05D054EA000C04BFFF
:1019A0001946104630BD91EA030F1EBF00210020EA
:1019B00030BD5FEA545C05D14000494128BF41F089
:1019C000004130BD14F580043CBF01F5801130BDED
:1019D00001F0004545F0FE4141F470014FF0000078
:1019E00030BD7FEA645C1ABF194610467FEA655C29
:1019F0001CBF0B46024650EA013406BF52EA0335CB
:101A000091EA030F41F4002130BD00BF90F0000FB8
:101A100004BF0021704730B54FF4806404F13204F4
:101A20004FF000054FF0000150E700BF90F0000FAD
:101A300004BF0021704730B54FF4806404F13204D4
:101A400010F0004548BF40424FF000013EE700BFA4
:101A500042004FEAE2014FEA31014FEA02701FBF34
:101A600012F07F4393F07F4F81F06051704792F006
:101A7000000F14BF93F07F4F704730B54FF4607480
:101A800001F0004521F0004120E700BF50EA0102CB
:101A900008BF704730B54FF000050AE050EA010278
:101AA00008BF704730B511F0004502D5404261EBE8
:101AB00041014FF4806404F132045FEA915C3FF429
:101AC000DCAE4FF003025FEADC0C18BF03325FEAC2
:101AD000DC0C18BF033202EBDC02C2F1200300FA77
:101AE00003FC20FA02F001FA03FE40EA0E0021FA9C
:101AF00002F11444C1E600BF70B54FF0FF0C4CF486
:101B0000E06C1CEA11541DBF1CEA135594EA0C0F3B
:101B100095EA0C0F00F0DEF82C4481EA030621EA76
:101B20004C5123EA4C5350EA013518BF52EA0335B1
:101B300041F4801143F4801338D0A0FB02CE4FF063
:101B40000005E1FB02E506F00042E0FB03E54FF093
:101B50000006E1FB03569CF0000F18BF4EF0010E8B
:101B6000A4F1FF04B6F5007F64F5407404D25FEA87
:101B70004E0E6D4146EB060642EAC62141EA55513A
:101B80004FEAC52040EA5E504FEACE2EB4F1FD0C7C
:101B900088BFBCF5E06F1ED8BEF1004F08BF5FEAFA
:101BA000500E50F1000041EB045170BD06F00046AC
:101BB00046EA010140EA020081EA0301B4EB5C0459
:101BC000C2BFD4EB0C0541EA045170BD41F4801151
:101BD0004FF0000E013C00F3AB8014F1360FDEBF76
:101BE000002001F0004170BDC4F10004203C35DA52
:101BF0000C341BDC04F11404C4F1200500FA05F3D5
:101C000020FA04F001FA05F240EA020001F0004275
:101C100021F0004110EBD37021FA04F642EB0601EB
:101C20005EEA430E08BF20EAD37070BDC4F10C0415
:101C3000C4F1200500FA04F320FA05F001FA04F2D9
:101C400040EA020001F0004110EBD37041F10001C5
:101C50005EEA430E08BF20EAD37070BDC4F12005D0
:101C600000FA05F24EEA020E20FA04F301FA05F238
:101C700043EA020321FA04F001F0004121FA04F2E0
:101C800020EA020000EBD3705EEA430E08BF20EAB0
:101C9000D37070BD94F0000F0FD101F000464000EA
:101CA00041EB010111F4801F08BF013CF7D041EA6C
:101CB000060195F0000F18BF704703F00046520070
:101CC00043EB030313F4801F08BF013DF7D043EA41
:101CD0000603704794EA0C0F0CEA135518BF95EAF7
:101CE0000C0F0CD050EA410618BF52EA4306D1D17E
:101CF00081EA030101F000414FF0000070BD50EA9D
:101D0000410606BF1046194652EA430619D094EA26
:101D10000C0F02D150EA013613D195EA0C0F05D110
:101D200052EA03361CBF104619460AD181EA030164
:101D300001F0004141F0FE4141F470014FF000001C
:101D400070BD41F0FE4141F4780170BD70B54FF0B7
:101D5000FF0C4CF4E06C1CEA11541DBF1CEA135537
:101D600094EA0C0F95EA0C0F00F0A7F8A4EB050419
:101D700081EA030E52EA03354FEA013100F0888010
:101D80004FEA03334FF0805545EA131343EA1263D9
:101D90004FEA022245EA111545EA10654FEA00268E
:101DA0000EF000419D4208BF964244F1FD0404F547
:101DB000407402D25B084FEA3202B61A65EB0305A3
:101DC0005B084FEA32024FF480104FF4002CB6EB60
:101DD000020E75EB030E22BFB61A754640EA0C00E0
:101DE0005B084FEA3202B6EB020E75EB030E22BF20
:101DF000B61A754640EA5C005B084FEA3202B6EB61
:101E0000020E75EB030E22BFB61A754640EA9C001F
:101E10005B084FEA3202B6EB020E75EB030E22BFEF
:101E2000B61A754640EADC0055EA060E18D04FEAAD
:101E3000051545EA16754FEA06164FEAC30343EA4D
:101E400052734FEAC2025FEA1C1CC0D111F4801F1A
:101E50000BD141EA00014FF000004FF0004CB6E713
:101E600011F4801F04BF01430020B4F1FD0C88BFB2
:101E7000BCF5E06F3FF6AFAEB5EB030C04BFB6EBBD
:101E8000020C5FEA500C50F1000041EB045170BDB0
:101E90000EF0004E4EEA113114EB5C04C2BFD4EBDD
:101EA0000C0541EA045170BD41F480114FF0000E61
:101EB000013C90E645EA060E8DE60CEA135594EADD
:101EC0000C0F08BF95EA0C0F3FF43BAF94EA0C0FE0
:101ED0000AD150EA01347FF434AF95EA0C0F7FF455
:101EE00025AF104619462CE795EA0C0F06D152EAA9
:101EF00003353FF4FDAE1046194622E750EA41068D
:101F000018BF52EA43067FF4C5AE50EA41047FF49D
:101F10000DAF52EA43057FF4EBAE12E74FF0FF3C02
:101F200006E000BF4FF0010C02E000BF4FF0010CD3
:101F30004DF804CD4FEA410C7FEA6C5C4FEA430C4C
:101F400018BF7FEA6C5C1BD001B050EA410C0CBF9B
:101F500052EA430C91EA030F02BF90EA020F0020FD
:101F6000704710F1000F91EA030F58BF994208BF64
:101F700090422CBFD8176FEAE37040F00100704721
:101F80004FEA410C7FEA6C5C02D150EA013C07D178
:101F90004FEA430C7FEA6C5CD6D152EA033CD3D0C3
:101FA0005DF8040B704700BF8446104662468C46BD
:101FB0001946634600E000BF01B5FFF7B7FF0028F0
:101FC00048BF10F1000F01BD4DF808EDFFF7F4FF19
:101FD0000CBF012000205DF808FB00BF4DF808EDA4
:101FE000FFF7EAFF34BF012000205DF808FB00BFC7
:101FF0004DF808EDFFF7E0FF94BF012000205DF8E9
:1020000008FB00BF4DF808EDFFF7CEFF94BF01209D
:1020100000205DF808FB00BF4DF808EDFFF7C4FF96
:1020200034BF012000205DF808FB00BF4FEA4102E9
:1020300012F5001215D211D56FF47873B3EB62521A
:1020400012D94FEAC12343F0004343EA505311F041
:10205000004F23FA02F018BF404270474FF00000D3
:10206000704750EA013005D111F0004008BF6FF011
:10207000004070474FF00000704700BF4FEA410238
:10208000B2F1E04324BFB3F5001CDCF1FE5C0DD9D6
:1020900001F0004C4FEAC0024CEA5070B2F1004F20
:1020A00040EB830008BF20F00100704711F0804F23
:1020B00021D113F13872BCBF01F00040704741F4E8
:1020C00080114FEA5252C2F11802C2F1200C10FAEC
:1020D0000CF320FA02F018BF40F001004FEAC123D0
:1020E0004FEAD32303FA0CFC40EA0C0023FA02F374
:1020F0004FEA4303CCE77FEA625307D150EA01334A
:102100001EBF4FF0FE4040F44000704701F0004019
:1021100040F0FE4040F40000704700BF53B94AB998
:10212000002908BF00281CBF4FF0FF314FF0FF30DF
:1021300000F03CB882B0EC462DE9005000F01EF8EB
:10214000DDF804E002B00CBC704700BF2DE9F0419F
:10215000069C154606460F46984600F029F805FBF2
:1021600001F300FB0838A5FB0023B21A434467EBD8
:102170000303C4E90023BDE8F08100BF2DE9F0416D
:10218000069C904606460F461D4600F05FF900FB90
:1021900005F5A0FB082308FB0155B21A2B4467EB99
:1021A0000303C4E90023BDE8F08100BF704700BF0E
:1021B00000292DE9F043C0F2A6800026002BC0F2D2
:1021C0009C80884694469E46154604460F46002B42
:1021D0003DD18A4259D9B2FA82F33BB1C3F1200210
:1021E0009F4020FA02F29D4017439C40290C220C8C
:1021F000B7FBF1FEA8B201FB1E7742EA074700FBDE
:102200000EF3BB420AD97F190EF1FF3280F005812F
:10221000BB4240F20281AEF1020E2F44FF1AA4B27B
:10222000B7FBF1F301FB137744EA074700FB03F028
:10223000B84208D97F1903F1FF3280F0F080B8422C
:1022400040F2ED80023B43EA0E43002203E08B4262
:102250000FD900221346341C18BF012460424FF0EE
:10226000000565EB45015840514000196941BDE842
:10227000F083B3FA83F2002A40F086808B4202D3C7
:10228000844500F2DB800123E5E712B90123B3FBAB
:10229000F2F5B5FA85F000283BD1781B4FEA154ED0
:1022A0001FFA85FC0122B0FBFEF8210C0EFB18077B
:1022B00041EA07470CFB08F3BB4207D97F1908F135
:1022C000FF3102D2BB4200F2BD808846FF1AA4B2A1
:1022D000B7FBFEF30EFB137744EA07470CFB03FC46
:1022E000BC4507D97F1903F1FF3102D2BC4500F28A
:1022F000A7800B4643EA0843ADE752426FEA060661
:1023000063EB43035DE7404261EB41014FF0FF3671
:1023100054E7C0F1200224FA02F107FA00F38540E5
:102320004FEA154ED7401943B7FBFEF20B0C0EFBDC
:1023300012771FFA85FC43EA07430CFB02F79F4222
:1023400004FA00F407D95B1902F1FF3074D29F42FE
:1023500072D9023A2B44DF1B89B2B7FBFEF80EFBA1
:10236000187341EA03430CFB08F79F4208D95B1935
:1023700008F1FF315CD29F425AD9A8F102082B44E0
:10238000D81B48EA02428EE7C2F120032CFA03F17F
:102390000EFA02FE20FA03F741EA0E0E08FA02F0E6
:1023A00028FA03F14FEA1E453843B1FBF5F8030C58
:1023B00005FB18111FFA8EF743EA014107FB08F3EA
:1023C0008B420CFA02FC09D911EB0E0108F1FF391E
:1023D00030D28B422ED9A8F102087144C91A80B2BA
:1023E000B1FBF5F305FB131140EA014107FB03F7CD
:1023F0008F4208D911EB0E0103F1FF3016D28F4244
:1024000014D9023B714443EA0843C91BA3FB0C895E
:10241000494509D305D000221DE79646FEE613463E
:1024200011E794404445F6D2013BF4E70346EAE75E
:102430008846A5E7C846D1E702468CE713460AE777
:10244000023B57E7A8F102082F443FE72DE9F0418E
:10245000002B44D18A42154604464FD9B2FA82F77E
:102460000E464FB1C7F12003B94020FA03F602FA35
:1024700007F50E4300FA07F44FEA154E230CB6FB9E
:10248000FEF0AFB20EFB106143EA014307FB00F11F
:10249000994209D95B1900F1FF3280F0EC80994232
:1024A00040F2E98002382B445A1AA4B2B2FBFEF380
:1024B0000EFB132244EA024207FB03F7974208D9B6
:1024C000521903F1FF3180F0D880974240F2D58055
:1024D000023B43EA004000263146BDE8F0818B42D2
:1024E00047D8B3FA83F6002E48D18B4202D38242FA
:1024F00000F2CD8001203146BDE8F08112B90125FE
:10250000B5FBF2F5B5FA85F8B8F1000F77D14A1BA3
:102510004FEA154EAFB20126B2FBFEF0230C0EFBC4
:10252000102143EA014107FB00F38B4207D9491907
:1025300000F1FF3202D28B4200F2BA801046C91A73
:10254000A4B2B1FBFEF30EFB131144EA014407FBF6
:1025500003F7A74208D9641903F1FF3280F08F8096
:10256000A74240F28C80023B43EA00403146BDE87E
:10257000F081002630463146BDE8F081C6F12004E6
:1025800022FA04F5B3402B4320FA04FC01FA06F7C3
:1025900021FA04F54FEA134E4CEA0707B5FBFEF8A3
:1025A000390C0EFB18551FFA83FC41EA05450CFB5C
:1025B00008F1A94202FA06F204D9ED1808F1FF3435
:1025C00067D3A0466D1ABFB2B5FBFEF40EFB1455DF
:1025D00047EA05410CFB04FC8C4504D9C91804F1F9
:1025E000FF355CD32C4644EA0844CCEB0101A4FB44
:1025F0000223994248D344D0204600266CE7C8F114
:10260000200401FA08F305FA08F520FA04F7E1407E
:102610004FEA154E1F43B1FBFEF63A0C0EFB1611A6
:102620001FFA85FC42EA01430CFB06F29A4200FACB
:1026300008F407D95B1906F1FF3137D29A4235D930
:10264000023E2B449B1ABFB2B3FBFEF00EFB1033CD
:1026500047EA03430CFB00F1994207D95B1900F1EB
:10266000FF3221D299421FD902382B445A1A40EA2C
:102670000646674650E7104616E70B4629E713461D
:1026800072E7B0409042B7D2601E002624E7304681
:1026900022E7A94295D9A8F102081D4492E78C458A
:1026A000A0D9023C19449EE71046DFE70E46C9E771
:1026B0000238294443E700BF08B507F02FFDFDF7B6
:1026C000FFFDFDF799FD00BF002103E00B4B5B58B8
:1026D000435004310A480B4B42189A42F6D30A4A37
:1026E00002E0002342F8043B084B9A42F9D3FDF77D
:1026F000B3FE00F00FF8FFF7DFFF704710C60008C9
:1027000000000020EC080020EC0800204C0A00200B
:10271000FEE7000070B50F4E0F4D761BB61018BFC8
:10272000002405D0013455F8043B9847A642F9D15E
:102730000A4E0B4D761BFDF77BFEB61018BF00242A
:1027400006D0013455F8043B9847A642F9D170BD34
:1027500070BD00BF10C6000810C6000810C60008F3
:1027600010C600080EB400B582B003AB816853F800
:10277000042B019301F0CCFA02B05DF804EB03B036
:10278000704700BF0FB400B5074983B004AB0868B9
:1027900053F8042B8168019301F0BAFA03B05DF895
:1027A00004EB04B0704700BF500400200CB4F0B537
:1027B0009DB022AC0E4654F8042B029123464FF4F0
:1027C000027E6FF000454FF6FF7702A9069601944E
:1027D000ADF814E004950795ADF8167000F030F8E8
:1027E000029B00221A701DB0BDE8F04002B0704795
:1027F0000EB4F0B59CB021AB0F4953F8042B0193F4
:1028000005466FF00044086802954FF402774FF6D2
:10281000FF7602A90695ADF8147004940794ADF8FC
:10282000166000F00DF8029B00221A701CB0BDE883
:10283000F04003B0704700BF5004002000000000CB
:102840002DE9F04FBFB0894606920A93049004F038
:1028500089F803681393184605F022F9B9F80C308B
:1028600014901A0604D5D9F81030002B01F0A1807D
:102870009FED997B8DED107B00232EAF0F9323935B
:10288000229312931593079321973C464E46069D3B
:102890002B78002B00F0A980252B02D1A5E0252B59
:1028A00003D015F8013F002BF9D1069BEB1A73B149
:1028B000229A23990698206001321944072A6360FE
:1028C0002391229272DC0834079A1A4407922B78DB
:1028D000002B00F0CB870023691C6D788DF86730E2
:1028E0001A46089303934FF0FF3A4B1CA5F12001C1
:1028F000582900F2E483DFE811F07702E203E203F3
:102900007B03E203E203E203E203E203E203F702F2
:102910001402E203FB011802E2038203C102C102B6
:10292000C102C102C102C102C102C102C102E2036D
:10293000E203E203E203E203E203E203E203E2036F
:10294000E203D0029103E2039103E203E203E20314
:10295000E2037403E203E2030C03E203E203E20393
:10296000E203E2032A03E203E2034403E203E20395
:10297000E203E203E203E203E203E203E203E2032F
:102980005F03330291039103910305033302E203D2
:10299000E203ED02E20385020202CB037E02E203C0
:1029A0009902E2037A00E203E203510204980393DE
:1029B000314621AA05F0A2F850B93C46039B83E7B3
:1029C0000498314621AA05F099F8002800F08C817E
:1029D000B146B9F80C3013F0400F079B18BF4FF009
:1029E000FF3318463FB0BDE8F08F069D6FE70693B2
:1029F000039B980640F1B4820A9B03F1070929F072
:102A0000070303F10802D3E900890A9201234FF07A
:102A1000000C8DF867C0CDF834A0BAF1000F03DBCD
:102A2000039A22F08002039258EA090240F0578389
:102A3000BAF1000F00F05C84012B00F05A83022BE6
:102A400000F09A8439464FEAD80242EA49724FEAC6
:102A5000D90008F0070381469046303358EA09024E
:102A600001F8013DEFD1039A0C91D20700F16E8578
:102A70007B1A0993099A92455346B8BF13460593AA
:102A800000230E93BCF1000F02D0059B0133059388
:102A9000039B13F002030B9302D0059B02330593B3
:102AA000039B13F0840940F01783089B059AC2EB3F
:102AB0000308B8F1000F40F30F83B8F1100F23990A
:102AC000229ADFF81CA030DD53464FF0100BC246AF
:102AD000A8461D460DE000BF0000000000000000F9
:102AE00084BF0008AAF1100ABAF1100F04F108041B
:102AF00017DD01321031072A2391229284E8200841
:102B0000F0DD0498314621AA04F0F8FF00287FF494
:102B10005FAFAAF1100ABAF1100F2399229A3C462E
:102B2000E7DC2B464546D0469A46013208EB010BBE
:102B3000072ACDF88CB02292C4F800A0C4F8048013
:102B400000F37E849DF867C00834BCF1000F0FD0FD
:102B5000229B01330BF1010B0DF167010122072BC1
:102B6000CDF88CB0229384E8060000F3EA830834A1
:102B70000B9B73B1229B01330BF1020B1AA90222AA
:102B8000072BCDF88CB0229384E8060000F3CD83A8
:102B90000834B9F1800F00F015830D9B099AC2EB40
:102BA000030ABAF1000F3CDDBAF1100F229ADFF8E8
:102BB00064942BDD49465B46A9464FF01008DDF8CA
:102BC00010B00D4606E0AAF1100ABAF1100F04F198
:102BD000080417DD01321033072A2393229284E878
:102BE0002001F0DD5846314621AA04F087FF002875
:102BF0007FF4EEAEAAF1100ABAF1100F239B229ACD
:102C00003C46E7DC9B462B464D4699460132D34471
:102C1000072ACDF88CB0229284E8000600F379836D
:102C20000834039BD90500F17082229B09990C9A04
:102C3000226001338B44072BCDF88CB06160229366
:102C400000F34A830834039B5A0741D5089B059A31
:102C50009D1A002D3CDD102D229BDFF8BCA323DD47
:102C60004FF010085A46DDF8109004E0103D102D8A
:102C700004F1080417DD01331032072B239222934D
:102C8000C4F800A0C4F80480F0DD4846314621AA0B
:102C900004F034FF00287FF49BAE103D102D239AE2
:102CA000229B3C46E7DC93460133AB44072BCDF82F
:102CB0008CB02293C4F800A0656009DD0498314609
:102CC00021AA04F01BFF00287FF482AEDDF88CB04F
:102CD000079B059A08998A42ACBF9B185B1807931B
:102CE000BBF1000F7FF46CAE002322933C46CEE58F
:102CF000194603981D7840F004000390F5E506930B
:102D0000039B13F0200300F00E810A9B03F10709D7
:102D100029F0070303F10802D3E900890A9200238E
:102D200075E61D7819462B22DFE51D782A2D03F163
:102D3000010100F0B887A5F1300009280B464FF0DB
:102D4000000A3FF6D3AD13F8015B0AEB8A0A00EBE9
:102D50004A0AA5F130000928F5D94AEAEA7AC5E518
:102D60000693039B8DF867209B0640F1A1800A9B88
:102D700003F1070929F00709D9E9002309F108013E
:102D80000A9190469946002A73F10003C0F20E841E
:102D90009DF867C0CDF834A001233EE606939B4B17
:102DA0001293039B8DF867209B0640F1F3800A9BEA
:102DB00003F1070929F00703D3E9008903F10802A9
:102DC0000A92039BD90740F1F58058EA090300F005
:102DD000F180039A8DF86950302342F002028DF899
:102DE00068300392022312E61D781946002A7FF408
:102DF0007CAD202279E5039941F0200103911D78F3
:102E0000194672E50693039B8DF867209A0640F1F8
:102E1000B08407990A9A4FEAE17913680846884610
:102E2000043249460A92C3E9000130E50A9A069342
:102E300013680C934FF0000B8DF867B002F1040992
:102E4000002B00F04686BAF1000F0C98C0F2F68510
:102E50005946524604F098F8002800F077860C9BFB
:102E6000CDF834B0C31A0993CDF8289023EAE37360
:102E70000593CDF838B09DF867C003E6A5F13000A2
:102E8000002113F8015B01EB810100EB4101A5F189
:102E900030000928F5D9089128E50693039B8DF8A1
:102EA000672043F010030393039B9B063FF55FAF3E
:102EB000039BD80600F16B83039B590640F167839F
:102EC0000A99B1F9008004314FEAE87942464B464D
:102ED0000A9158E71D7803996C2D00F0D38441F0D6
:102EE00010010391194600E50A9D296808910846DA
:102EF0000028294601F10401C0F2CB840A911D7813
:102F00001946F2E4039941F0400103911D781946F6
:102F1000EBE40693039B43F010030393039B13F02E
:102F200020037FF4F2AE039A12F0100240F01C83EB
:102F3000039B13F0400300F017830A9913460A46D7
:102F40000432B1F800800A924FF000095FE5069361
:102F5000039B43F010030393039B98063FF54CAD8E
:102F6000039BD90600F10983039B5A0640F10583B0
:102F70000A9AB2F8008004324FF0000901230A9245
:102F800045E50693224B1293039B8DF867209B0621
:102F90003FF50DAF039BD80640F1DC830A9A134638
:102FA0001B689846039B0432D9070A924FF0000928
:102FB0003FF50BAF02232AE50A9906930A688DF8BC
:102FC00090200023012204319C4605920A918DF83D
:102FD000673024ABCDF834C0CDF838C009920C93DB
:102FE00056E5039941F0080103911D7819467CE4E8
:102FF000039941F0010103911D78194675E4039985
:1030000041F0800103911D7819466EE4B8BF0008B5
:10301000A4BF000874BF000884BF00080693039B88
:103020008DF8672013F0080F0A9BD34603F10709B8
:1030300000F0868329F0070393ED007B8DED107B74
:1030400003F108020A929DED100B04F0A5FC012883
:1030500040F05A83DDE9100100220023FEF7BEFF95
:10306000002840F06B859DF867C0039BBD4ADFF8E0
:1030700000E323F080030393134603210020472D30
:10308000D8BF734605910D900C9309910E90F9E409
:103090000A9803990693302203688DF86820024647
:1030A000782541F0020104329846AF4B1293039108
:1030B0000A924FF000098DF869500223A7E40693A5
:1030C0008DF86720002D00F0D183002301229C465B
:1030D00005928DF890507AE7DDF88CB035E5012B3C
:1030E0007FF4ADACB9F1000F08BFB8F10A0F80F062
:1030F0000D820DF1F80B08F130080BF8418DCBEB88
:1031000007030993CDF830B0B4E4652D40F3A080F7
:10311000DDE9100100220023FEF756FF002800F031
:103120004481229B914A226001330BF1010B012261
:10313000072BCDF88CB02293626000F33F830834F4
:103140001B9B0F9A934203DB039BDA077FF57BAD52
:10315000229B1499139A226001338B44072BCDF8DC
:103160008CB06160229300F39B8308340F9B5D1E3B
:10317000002D7FF768AD102D229BDFF8F89140F30A
:10318000B9814FF010085A46DDF810A004E0083469
:10319000103D102D40F3AD8101331032072B2392E7
:1031A0002293C4F80090C4F80480F0DD5046314604
:1031B00021AA04F0A3FC00287FF40AAC239A229BE6
:1031C0003C46E5E7089B059AC2EB030ABAF1000FFB
:1031D0007FF7E3ACBAF1100F229ADFF898912BDD5C
:1031E00049465B46A9464FF01008DDF810B00D4681
:1031F00006E0AAF1100ABAF1100F04F1080417DD75
:1032000001321033072A2393229284E82001F0DD53
:103210005846314621AA04F071FC00287FF4D8AB4F
:10322000AAF1100ABAF1100F239B229A3C46E7DC60
:103230009B462B464D4699460132D344072ACDF88A
:103240008CB0229284E8000600F351820834A4E492
:103250000F9B229D012B40F31F820C9B23600135A5
:103260000BF101030122072D23932295626000F3E5
:103270002582083414996160013503EB010B072D99
:10328000139BCDF88CB02295236000F32382083481
:103290000023DDE910010022FEF796FE0F9B0028B7
:1032A00040F0DD800C9A013B013501329B44072D33
:1032B0002295CDF88CB02260636000F30D81083454
:1032C000159A6260013593441DAB072DCDF88CB083
:1032D000229523607FF7B6AC0498314621AA04F00A
:1032E0000DFC00287FF474ABDDF88CB03C46AAE4FA
:1032F000002B32D1039BD8072FD50DF1F80B3023CB
:103300000BF8413DCBEB07030993CDF830B0FFF745
:10331000B1BB0498314621AA04F0F0FB00287FF4E9
:1033200057ABDDF88CB03C467BE40498314621AACB
:1033300004F0E4FB00287FF44BABDDF88CB03C4696
:1033400027E40498314621AA04F0D8FB00287FF432
:103350003FABDDF88CB03C460AE4CDF824A00C97D6
:10336000FFF788BB98BF0008B8BF0008D4BF0008AB
:1033700094BF000874BF00081298BB464FEA1813A8
:1033800008F00F0143EA09734FEA19129846914673
:10339000435C0BF8013D58EA0903EFD15B46CDF8D9
:1033A00030B0FB1A0993FFF765BB1B9D002D40F35E
:1033B00011820F9A0E998A421346A8BF0B461D46EA
:1033C0000C99002D01EB020A0BDD229B21600133D9
:1033D000AB44072BCDF88CB06560229300F3558386
:1033E00008340E9B002DA8BF5B1B002B1D4640F32D
:1033F000F580102D229BDFF8089640F3D2815A46C3
:103400004FF01008DDF810B004E00834103D102D26
:1034100040F3C68101331032072B23922293C4F864
:103420000090C4F80480F0DD5846314621AA04F02B
:1034300065FB00287FF4CCAA239A229B3C46E5E753
:103440000498314621AA04F059FB00287FF4C0AA51
:103450009DF867C0DDF88CB03C46FFF776BB03F102
:10346000FF38B8F1000F7FF72BAFB8F1100FDFF87E
:10347000909525DD5B464FF0100ADDF810B006E0B0
:10348000A8F11008B8F1100F04F1080417DD013598
:103490001033072D2393229584E80006F0DD58466B
:1034A000314621AA04F02AFB00287FF491AAA8F152
:1034B0001008B8F1100F239B229D3C46E7DC9B4689
:1034C0000135C344072DCDF88CB02295C4F8009087
:1034D000C4F804807FF7F3AE0498314621AA04F0C3
:1034E0000DFB00287FF474AADDF88CB0229D3C46C9
:1034F000E6E693460133AB44072BCDF88CB022931C
:10350000C4F8009065607FF79DABE5E6BB46CDF85B
:1035100014C0404649460A220023FEF7FFFD303220
:10352000404649460BF8012D00230A22FEF7F6FD1E
:103530008046894658EA0903EBD15B46FB1ADDF861
:1035400014C0CDF830B00993FFF794BA302B0C9B20
:103550003FF427AF013B1A460C93BA1A3023099265
:1035600001F8013CFFF786BA0A990A6804310A910A
:1035700090464FF00009FFF74ABA0A990A680431E9
:1035800001230A9190464FF00009FFF740BA0A9ACA
:10359000136898464FEAE3791346043342460A9388
:1035A000002A4B4673F10003BFF6F2AB4FF02D0C2F
:1035B000D8F1000869EB49098DF867C0CDF834A04F
:1035C0000123FFF72ABA0498314621AA04F096FA9B
:1035D00000287FF4FDA9DDF88CB03C460C9A0E99CA
:1035E0001B9B0A4490460F9A934246DB039AD007EE
:1035F00043D40F9AC8EB0A05D31A9D42A8BF1D46B3
:10360000002D0CDD229AC4F800800132AB44072A59
:10361000CDF88CB06560229200F36F820834002DE3
:10362000ACBF5D1B1D46002D7FF70DAB102D229BFF
:10363000DFF8CC937FF75EAF4FF010085A46DDF805
:1036400010A004E00834103D102D7FF752AF013375
:103650001032072B23922293C4F80090C4F8048000
:10366000F0DD5046314621AA04F048FA00287FF4E4
:10367000AFA9239A229B3C46E5E7229A1498139916
:10368000216001328344072ACDF88CB06060229219
:1036900000F307820834ACE7039BD9073FF5DDADA3
:1036A0000C9B236001350BF1010B0123072DCDF895
:1036B0008CB0229563607FF702AE0DE70498314627
:1036C00021AA04F01BFA00287FF482A9239B229DE3
:1036D0003C46CFE50498314621AA04F00FFA0028B1
:1036E0007FF476A9DDF88CB0229D3C46D0E50498A5
:1036F000314621AA04F002FA00287FF469A9DDF816
:103700008CB03C46FFF749BA9DED100B04F044F92C
:10371000002840F0D1808646B64AB74B0D900398FA
:103720009DF867C0CDF838E0032120F08000472DD8
:10373000D8BF1A46059103900C920991FFF7A2B9E0
:1037400029F0070999ED007B09F108038DED107B45
:103750000A9378E4039B0A9A13F0400F13463FF450
:103760001FAC0433B2F800800A934FF00009FFF752
:1037700028BB039BDB060BD4039B5D0608D50A9A86
:10378000136804320A92BDF81C201A80FFF77FB834
:103790000A9A136804320A92079A1A60FFF777B8F8
:1037A00093460133AB44072BCDF88CB02293C4F879
:1037B000009065603FF707AF08340FE70498314683
:1037C00021AA04F09BF900287FF402A9DDF88CB04F
:1037D0003C46B5E4229B894A226001330BF1010B80
:1037E0000122072BCDF88CB02293626000F3F180A8
:1037F00008342DB90F9B1BB9039BDB077FF523AA68
:10380000229B1498139A226001330BEB0001072BC3
:1038100023916060229300F3EF8104F108026D426E
:10382000002D40F3FA80102DDFF8D49140F346814B
:103830001024DDF8108004E00832103D102D40F314
:103840003D8101331031072B23912293C2F8009060
:103850005460F1DD4046314621AA04F04FF90028BA
:103860007FF4B6A82399229B3A46E6E7239BB1460C
:10387000002B3FF4AEA80498314621AA04F03EF98B
:10388000FFF7A7B841F0200103915D78591CFFF7BD
:103890002CB808980A91404208901946FFF729BAB7
:1038A0000498314621AA04F029F900287FF490A851
:1038B000DDF88CB03C4659E425F02003BAF1FF3F17
:1038C000059300F09380472B05D1BAF1000F14BF88
:1038D000D3464FF0010B119B039A002B42F48072E8
:1038E0000B92C0F2A4819DED107B8DED167B4FF005
:1038F000000A662D00F0AC80462D00F0A980059BE3
:103900000498452B0CBF0BF10109D9461CAA1FAB2B
:103910008DE80C009DED160B02214A461BAB01F011
:103920004BFD672D0C9002D0472D40F09F80039BEC
:10393000DB0740F192810C9B03EB0908DDE91601DE
:1039400000220023FEF740FB002840F0FD801F9B73
:10395000984506D930215A1C1F9219701F9B984513
:10396000F9D80C9A9B1A0F93059B472B1B9B00F0D1
:10397000DE80652D40F3F880662D0E9300F06081A7
:103980000F9B0E9A934200F34481039BD90700F1E9
:10399000668122EAE2730992BAF1000F40F0BC801E
:1039A00005930B9B0393CDF834A09DF867C0FFF7F8
:1039B00069B80498402103F055F8C9F80000C9F827
:1039C0001000002800F097814023C9F81430FEF75A
:1039D0004FBF0498314621AA04F090F800287EF4E5
:1039E000F7AF1B9DDDF88CB03C4602E74FF0060BAD
:1039F00071E700BFA0BF00089CBF0008D4BF00084B
:103A000074BF00080498314621AA04F077F8002812
:103A10007EF4DEAF2399229B3A460F9C546001331B
:103A200001EB040B072B0C99CDF88CB0229311609D
:103A30003FF752AC02F10804FFF705B9CDF834B0F6
:103A400004F02EF8CDF8289009900346FFF70EBA3F
:103A50001CAA1FAB8DE80C0004989DED160B0321EA
:103A60005A461BAB01F0A8FCD9460C900C9B03EB0B
:103A70000908059B462B7FF461AF0C9B1B78302B0C
:103A800000F003811B9B984458E70498314621AA13
:103A900004F034F800287EF49BAFDDF88CB03C468F
:103AA0009FE40498314621AA04F028F800287EF407
:103AB0008FAF1B9BDDF88CB03C469AE5013329445F
:103AC000072B23912293C2F8009055609ADC0832AC
:103AD000A3E75346062B28BF0623099323EAE37383
:103AE000DDF830C00593874BCDF82890CDF834C071
:103AF000CDF838C00C93FEF7C5BF0498314621AA13
:103B000003F0FCFF00287EF463AF1B9B0F9ADDF8E7
:103B10008CB0D31A3C4682E505930B9B03934FF080
:103B20002D0C00238DF867C00D93FEF7AEBFDA1C95
:103B300019DB9B4517DB0E93672521E74FF02D0C12
:103B40008DF867C0FFF791BA43460AE72AEAEA739D
:103B50000D90CDF828900E909DF867C00593CDF894
:103B600024A0FEF78FBF023D013B002B1B93BABF81
:103B70005B422D222B22092B8DF874508DF8752075
:103B80007BDD0DF1830E70465F4A82FB0321DA175D
:103B9000C2EBA10202EB8201A3EB410303F130016E
:103BA000092A134600F8011DEEDC02463033D9B273
:103BB00002F8011D964540F29B800DF17602034606
:103BC00001E013F8011B02F8011B7345F9D121AB89
:103BD0001B1A0DF1760213441DAA9B1A0F9A159316
:103BE000012A1344099374DD099B002201330993D0
:103BF0000E9223EAE373CFE60498314621AA03F03C
:103C00007DFF00287EF4E4AE1B9D2399229B3A465B
:103C100005E60E9B002BD8BFC3F102080F9BC8BF5F
:103C20004FF001084344099323EAE373B4E6DDE966
:103C3000100101F10043169017934FF02D0A58E63A
:103C4000002B3DDDBBF1000F0FD1039BDB070CD434
:103C50000E9A099222EAE2739EE61F9B81E60E9B72
:103C60000133099323EAE37396E60E9B0BF10108F7
:103C70004344099323EAE3738EE6303330228DF810
:103C800077308DF876201EABA6E7DDE9160100221D
:103C90000023FEF799F900287FF4F4AEC9F101037F
:103CA0001B9398444AE60A9DD5F800A028460430A4
:103CB000BAF1000F5D780A90BEF617AEFEF713BE9C
:103CC000BBF1000F0ED1039BD8070BD4012309933E
:103CD00062E6039B13F0010386D10E93099B23EA4E
:103CE000E37359E60BF10203099323EAE37353E606
:103CF0000DF1760370E7049A0C2313604FF0FF3048
:103D0000FEF770BECCBF0008676666660000000064
:103D10002DE9F04FBDB01C4689460492074602F0DB
:103D200021FE03681193184603F0BAFE089412901E
:103D30001FB1BB6B002B00F0F380B9F80C2093B2DD
:103D40009E040AD4D9F8641042F4005321F40051BF
:103D5000A9F80C30C9F864109BB21D0740F1AA8085
:103D6000D9F81020002A00F0A58003F01A030A2BCE
:103D700000F0AC809FED6E7B00238DED0E7B0D93EC
:103D8000219320931093139305932CAB1F931C4600
:103D9000B846049D2B78002B00F0C680252B02D15D
:103DA000C2E0252B03D015F8013F002BF9D1049B6D
:103DB000EE1A7EB1209B219A04992160013332448E
:103DC000072B66602192209300F393800834059BB3
:103DD000334405932B78002B00F093800023691C5B
:103DE0004FF0FF3A6D788DF85F301A4606930293D4
:103DF00056464B1CA5F12001582900F2CD83DFE87F
:103E000011F05C02CB03CB030203CB03CB03CB0348
:103E1000CB03CB03CB030903D202CB03F80153033B
:103E2000CB03D602DD02DD02DD02DD02DD02DD02B2
:103E3000DD02DD02DD02CB03CB03CB03CB03CB03DF
:103E4000CB03CB03CB03CB03CB0371029302CB0396
:103E50009302CB03CB03CB03CB03CB02CB03CB032C
:103E60006E03CB03CB03CB03CB03CB03B503CB0355
:103E7000CB038B03CB03CB03CB03CB03CB03CB0312
:103E8000CB03CB03CB03CB03A00317039302930213
:103E9000930230031703CB03CB033703CB03410358
:103EA000FF01EC026302CB031102CB039B00CB03A7
:103EB000CB0336023846494601F084F9A0B9B9F877
:103EC0000C3003F01A030A2B7FF454AFB9F90E300B
:103ED000002BFFF64FAF38464946049A234601F0BF
:103EE00035F93DB0BDE8F08F4FF0FF303DB0BDE893
:103EF000F08F404649461FAA04F00EFC40B92CAC96
:103F000065E7219B23B1404649461FAA04F004FC03
:103F1000B9F80C305A06E7D405983DB0BDE8F08FEB
:103F2000384602F055FB08E7049D53E7AFF30080E5
:103F300000000000000000000493029BB2469E06B1
:103F400040F11E83089F073727F0070303F108029B
:103F5000D3E90067089201234FF0000C8DF85FC091
:103F6000CDF82CA0BAF1000F03DB029A22F08002F8
:103F7000029256EA070240F01F83BAF1000F00F0E8
:103F80001C84012B00F02083022B00F052842CA90A
:103F9000F20842EA4772F80806F007030746164699
:103FA000303356EA070201F8013DF1D1029A0A9135
:103FB000D00700F1F9842CAB5B1A0793079A92455E
:103FC0005346B8BF1346039300230C93BCF1000F74
:103FD00002D0039B01330393029B13F00203099366
:103FE00002D0039B02330393029B13F0840640F03C
:103FF000E082069B039AC2EB030ABAF1000F40F37A
:10400000D882BAF1100F2199209AB34FC8BF4FF050
:10401000100B07DC1EE0AAF1100ABAF1100F04F130
:10402000080417DD01321031072A2191209284E81B
:104030008008F0DD404649461FAA04F06DFB0028C9
:104040007FF466AFAAF1100ABAF1100F2199209AF5
:104050002CACE7DC01320AEB010B072ACDF884B067
:10406000209284E8800400F34A849DF85FC00834FD
:10407000BCF1000F0FD0209B01330BF1010B0DF1B0
:104080005F010122072BCDF884B0209384E806005D
:1040900000F3B1830834099B73B1209B01330BF10A
:1040A000020B18A90222072BCDF884B0209384E8D4
:1040B000060000F3AC830834802E00F0F0820B9BE6
:1040C000079AC2EB030ABAF1000F32DDBAF1100F02
:1040D000209A824F22DD10265B4606E0AAF1100AE4
:1040E000BAF1100F04F1080417DD01321033072A6A
:1040F0002193209227606660F0DD404649461FAA62
:1041000004F00AFB00287FF403AFAAF1100ABAF109
:10411000100F219B209A2CACE7DC9B460132D34444
:10412000072ACDF884B0209284E8800400F35783F6
:104130000834029BDB0500F15B82209B07990A9AF9
:10414000226001338B44072BCDF884B0616020934B
:1041500000F31D830834029B59073AD5069B039A46
:104160009D1A002D35DD102D209B5B4F1EDD102686
:104170005A4604E0103D102D04F1080415DD01330A
:104180001032072B2192209327606660F2DD4046B3
:1041900049461FAA04F0C0FA00287FF4B9AE103DCA
:1041A000102D219A209B2CACE9DC93460133AB44C3
:1041B000072BCDF884B020932760656009DD404669
:1041C00049461FAA04F0A8FA00287FF4A1AEDDF842
:1041D00084B0059B039A06998A42ACBF9B185B1872
:1041E0000593BBF1000F40F0DE82002320932CAC3E
:1041F000CFE5194602981D7840F004000290F8E5DA
:104200000493029B13F02003B24600F07381089FD1
:10421000073727F0070303F10802D3E90067089284
:10422000002399E6089A049313680A934FF0000B51
:104230008DF85FB0171D002B00F05E86002E0A98E7
:10424000C0F212865946324602F09EFE002800F067
:104250008F860A9BCDF82CB0C31A0793089723EAE0
:10426000E3730393CDF830B09DF85FC0AEE60493DE
:104270001B4B1093029B8DF85F209906B24640F1CC
:104280005581089F073727F00703D3E9006703F13B
:1042900008020892029BDB0740F1E48256EA07031A
:1042A00000F0E082029A8DF86150302342F0020261
:1042B0008DF86030029202234EE61D781946002ADE
:1042C0007FF497AD202294E5029941F020010291FC
:1042D0001D7819468DE500BFE8BF0008D8BF00086B
:1042E000B8BF00080493029B8DF85F2043F01003D1
:1042F0000293029B9806B24640F1A280089F0737BE
:1043000027F00707D7E9002307F1080108911646AF
:104310001F46002A73F10003C0F21C849DF85FC0A1
:10432000CDF82CA001231DE60493029B089F8DF875
:104330005F201B07B246B34607F1070740F19B8495
:1043400027F0070393ED007B8DED0E7B03F1080250
:1043500008929DED0E0B03F01FFB012840F008842E
:10436000DDE90E0100220023FDF738FE002840F0B1
:10437000EC859DF85FC0029E994A9A4B032100206C
:1043800026F08006472DD8BF1A4603910B9002965F
:104390000A9207910C9019E6029941F008010291E6
:1043A0001D78194625E51D7819462B2221E502992D
:1043B00041F0800102911D7819461AE5A5F13000FF
:1043C000002113F8015B01EB810100EB4101A5F134
:1043D00030000928F5D906910CE50899049330239B
:1043E000029A8DF860300B460433782542F00202C1
:1043F00008937D4B1093B24602920E688DF861507F
:1044000000270223A8E5029941F0010102911D78DD
:104410001946EEE4089D29680691084600282946B9
:1044200001F10401C0F2EE8408911D781946E0E420
:104430000493029B8DF85F209806B2463FF55EAF6D
:10444000029BD90600F19B82029B5A0640F197829B
:104450000899B1F900600431F71732463B460891DC
:1044600057E7029941F0400102911D781946C0E4D6
:104470001D7802996C2D00F0BE8441F0100102916C
:104480001946B6E40493029B8DF85F209A0640F12A
:10449000FD83089A05991368CF17084604323946F8
:1044A0000892C3E9000174E41D782A2D03F101018B
:1044B00000F02A86A5F1300009280B464FF00006CF
:1044C0003FF698AC13F8015B06EB860600EB460658
:1044D000A5F130000928F5D946EAE6768AE4049386
:1044E000029B43F010030293029B13F02003B24699
:1044F0007FF48DAE029A12F0100240F03882029BD7
:1045000013F0400300F03382089913460A46043240
:104510000E88089200271FE50493344B1093029BEA
:104520008DF85F209906B2463FF5ABAE029BDA06E6
:1045300040F1D183089A1346043316680893002784
:10454000A8E6089904930A688DF8882000230122C0
:1045500004319C46039208918DF85F3022ABCDF870
:104560002CC0CDF830C007920A9335E50493029B26
:1045700043F010030293029BB2469E063FF5E2AC65
:10458000029BD80640F19983089A134604321E68AC
:10459000089201230027DFE404938DF85F20002DAB
:1045A0003FF4AFAC002301229C4603928DF8885063
:1045B000D2E7DDF884B05BE5012B7FF4E5AC002F9A
:1045C00008BF0A2E80F0FF810DF1F00B30360BF89A
:1045D000416D2CABCBEB03030793CDF828B0EDE492
:1045E00098BF000894BF0008B8BF0008A4BF000827
:1045F000652D40F38A80DDE90E0100220023FDF7DE
:10460000E3FC002800F03181209BAE4A2260013398
:104610000BF1010B0122072BCDF884B020936260CF
:1046200000F372830834199B0D9A934203DB029BBB
:10463000DF077FF590AD209B1299119A226001331C
:104640008B44072BCDF884B06160209300F3E183A5
:1046500008340D9B5D1E002D7FF77DAD102D209B36
:10466000994F40F3968110265A4604E00834103DD5
:10467000102D40F38D8101331032072B21922093AE
:1046800027606660F2DD404649461FAA04F044F800
:1046900000287FF43DAC219A209B2CACE7E7069BD9
:1046A000039A9E1A002E7FF70AAD102E209A864F8D
:1046B0001FDD4FF0100A5B4604E0103E102E04F19F
:1046C000080415DD01321033072A2193209284E873
:1046D0008004F2DD404649461FAA04F01DF8002878
:1046E0007FF416AC103E102E219B209A2CACE9DCF6
:1046F0009B460132B344072ACDF884B0209227604C
:10470000666000F31A820834D9E40D9B209D012BCA
:1047100040F3D5810A9B236001350BF1010601238B
:10472000072D21962095636000F3E5810834129AE5
:10473000119B236001351644072D21962095626058
:1047400000F3EF8108340023DDE90E010022FDF7BC
:104750003BFC0D9B002840F0E1800A9A013B0135AB
:1047600001321E44072D209521962260636000F3DC
:10477000B6810834139A6260013506EB020B1BAB5D
:10478000072DCDF884B0209523607FF7E3AC404639
:1047900049461FAA03F0C0FF00287FF4B9ABDDF83B
:1047A00084B02CACD7E4404649461FAA03F0B4FFBE
:1047B00000283FF41AADFFF7ABBB002B33D1029BAF
:1047C000DA0730D50DF1F00B30230BF8413D2CAB5F
:1047D000CBEB03030793CDF828B0FFF7EFBB4046C0
:1047E00049461FAA03F098FF00287FF491ABDDF83B
:1047F00084B02CAC9DE4404649461FAA03F08CFFD0
:1048000000287FF485ABDDF884B02CAC43E440464F
:1048100049461FAA03F080FF00287FF479ABDDF83A
:1048200084B02CAC48E42CABCDF81CA00A93FFF765
:10483000C5BB10980DF1B00B330906F00F0143EA28
:1048400007733A091E461746435C0BF8013D56EACA
:104850000703F1D15A462CAB9B1ACDF828B0079329
:10486000FFF7ACBB0223FFF777BB199D002D40F388
:1048700057820D9A0C998A421346A8BF0B461D46D3
:104880000A99002D01EB020A0BDD209B2160013308
:10489000AB44072BCDF884B06560209300F3098307
:1048A00008340C9B002DA8BF5B1B002B1D4640F35A
:1048B000B080102D209B044F40F31A8210265A46D8
:1048C00009E000BFD4BF0008D8BF00080834103D7D
:1048D000102D40F30C8201331032072B21922093CC
:1048E00027606660F2DD404649461FAA03F014FFC8
:1048F00000287FF40DAB219A209B2CACE7E74046C3
:1049000049461FAA03F008FF00287FF401AB9DF879
:104910005FC0DDF884B02CACFFF7AABB03F1FF3A0F
:10492000BAF1000F7FF726AFBAF1100F8F4FC8BF53
:104930004FF0100B07DCEAE00834AAF1100ABAF1D4
:10494000100F40F3E48001351036072D2196209595
:1049500084E88008F0DD404649461FAA03F0DCFEEB
:1049600000287FF4D5AA219E209D2CACE5E708996C
:104970000A4604320E6808920027FFF7EDBA089A3B
:10498000166813460433F717089332463B46C0E4D3
:1049900093460133AB44072BCDF884B020932760B6
:1049A00065607FF7D7ABF2E6302B00F03E820A9BC2
:1049B000013B1A462CA80A93821A3023079201F869
:1049C000013CFFF7FBBA0DF1B00BCDF80CC030463F
:1049D00039460A220023FDF7A1FB30323046394622
:1049E0000BF8012D00230A22FDF798FB06460F461F
:1049F00056EA0703EBD1DDF80CC02BE740464946E9
:104A00001FAA03F089FE00287FF482AADDF884B093
:104A10002CAC0A9A0C99199B0A4416460D9A93429B
:104A20003EDB029AD5073BD40D9AC6EB0A05D31A92
:104A30009D42A8BF1D46002D2F460BDD209A266003
:104A40000132AB44072ACDF884B06560209200F3B0
:104A500066820834002FACBFDD1B1D46002D7FF79A
:104A60007AAB102D209B414F93DD10265A4603E070
:104A70000834103D102D8BDD01331032072B2192AD
:104A8000209327606660F3DD404649461FAA03F085
:104A900043FE00287FF43CAA219A209B2CACE8E737
:104AA000209A12981199216001328344072ACDF887
:104AB00084B06060209200F308820834B4E7029B5F
:104AC000D8073FF527AE0A9B236001350BF101069D
:104AD0000123072D2196209563607FF74AAE40465B
:104AE00049461FAA03F018FE00287FF411AA219E50
:104AF000209D2CAC3EE6404649461FAA03F00CFE22
:104B000000287FF405AA219E209D2CAC0FE60135DC
:104B10005644072D2196209584E880047FF729AE1E
:104B2000DDE7404649461FAA03F0F6FD00287FF462
:104B3000EFA9219E209D2CAC05E6404649461FAAC0
:104B400003F0EAFD00287FF4E3A9DDF884B02CAC83
:104B5000FFF7B5BA4FF02D0C764267EB47078DF89B
:104B60005FC0CDF82CA00123FFF7FCB9D8BF000827
:104B70009DED0E0B02F010FF002800F0168125F0CD
:104B80002003BAF1FF3F039300F06082472B05D169
:104B9000BAF1000F14BFD3464FF0010B0F9B029ADE
:104BA000002B42F480720992C0F260829DED0E7B70
:104BB0008DED147B4FF0000A662D00F05E81462DCE
:104BC00000F05B81039B452B0CBF0BF101075F4697
:104BD0001AAA1DAB8DE80C0040469DED140B022176
:104BE0003A4619AB00F0E8FB672D0A9002D0472D3A
:104BF00040F05181029BDB0740F141820A9BDE19A4
:104C0000DDE9140100220023FDF7DEF9002840F061
:104C1000AD811D9B9E4206D930215A1C1D921970F0
:104C20001D9B9E42F9D80A9A9B1A0D93039B472B12
:104C3000199B00F08381652D40F3A681662D0C93AE
:104C400000F01F820D9B0C9A934200F30282029B9C
:104C5000D90700F1398222EAE2730792BAF1000F14
:104C600040F079810393099B0293CDF82CA09DF825
:104C70005FC0FFF7ABB927F0070797ED007B07F19F
:104C800008038DED0E7B0893FFF763BB029BDB06E9
:104C90000BD4029B5F0608D5089A13680432089269
:104CA000BDF814201A80FFF774B8089A136804320C
:104CB0000892059A1A60FFF76CB8029B089A13F0E5
:104CC000400F13463FF462AC1688043200270123DC
:104CD0000892FFF741B9029B089A13F0400F134660
:104CE00076D00433168808930027FFF7D3BA93468B
:104CF0000133AB44072BCDF884B020932760656067
:104D00003FF77CAE083484E6404649461FAA03F0CC
:104D100003FD00287FF4FCA8DDF884B02CAC82E40D
:104D2000209BB04A226001330BF1010B0122072BBB
:104D3000CDF884B02093626050DC08342DB90D9B0F
:104D40001BB9029BDE077FF506AA209B1299119AD8
:104D5000226001330BEB0102072B2192616020934B
:104D600000F3678108346D42002D6FDD102D9E4FDA
:104D7000C8BF102605DCB5E00834103D102D40F307
:104D8000B18001331032072B219220932760666097
:104D9000F2DD404649461FAA03F0BEFC00287FF41E
:104DA000B7A8219A209B2CACE7E7029E8F4A904B34
:104DB0009DF85FC00B90032126F08006472DD8BFD9
:104DC0001A46039102960C900A920791FFF7FEB8DB
:104DD0000433166808930027FFF75CBA404649463B
:104DE0001FAA03F099FC00287FF492A8199DDDF812
:104DF00084B02CACA2E741F0200102915D78591CEF
:104E0000FEF7F7BF06980891404206901946FFF753
:104E1000F1B9404649461FAA03F07EFC00287FF402
:104E200077A8DDF884B02CAC13E40A9A2CAB9B1A5B
:104E30000793FFF7C3B8404649461FAA03F06CFC2E
:104E400000287FF465A8219A209B2CAC0D98606007
:104E5000013302EB000B072B0A9ACDF884B02093A4
:104E600022607FF777A992E4CDF82CB002F018FE0B
:104E7000089707900346FFF7F2B91AAA1DAB8DE811
:104E80000C0040469DED140B03215A4619AB00F06F
:104E900093FA5F460A900A9BDE19039B462B7FF428
:104EA000AFAE0A9B1B78302B00F00081199F3E4467
:104EB000A6E6404649461FAA03F02EFC00287FF4D0
:104EC00027A8DDF884B02CACEBE4404649461FAA85
:104ED00003F022FC00287FF41BA8199BDDF884B0A6
:104EE0002CACA1E501332A44072B219220932760A3
:104EF0006560A0DC0834A9E7062E334628BF0623E8
:104F0000079323EAE373DDF828C00393394B08972E
:104F1000CDF82CC0CDF830C00A93FFF757B8404603
:104F200049461FAA03F0F8FB00287EF4F1AF199B55
:104F30000D9ADDF884B0D31A2CAC8BE5DF1C22DB94
:104F40009B4520DB0C9367257CE64FF02D0C8DF8FC
:104F50005FC0FFF710BA0393099B02934FF02D0C2B
:104F600000238DF85FC00B93FFF733B833465AE642
:104F700026EAE6730B9008970C909DF85FC00393A8
:104F80000796FFF723B8023D013B002B1993BABFE8
:104F90005B422D222B22092B8DF86C508DF86D2051
:104FA00040F398800DF17B063046134A82FB0321C3
:104FB000DA17C2EBA10202EB8201A3EB410303F17A
:104FC0003001092A134600F8011DEEDC0246303399
:104FD000D9B202F8011D964240F2A9800DF16E028D
:104FE00003460DE0D4BF0008D8BF0008A0BF0008EA
:104FF0009CBF0008CCBF00086766666613F8011BFB
:1050000002F8011BB342F9D11FAB1B1A0DF16E025E
:1050100013441BAA9B1A0D9A1393012A1344079356
:1050200069DD079B0022013307930C9223EAE373A7
:1050300014E6404649461FAA03F06EFB00287EF4A2
:1050400067AF199D219A209B2CAC8CE64FF0060B84
:10505000A4E50C9B002BD8BFC3F102060D9BC8BF73
:105060000126F318079323EAE373F7E5DDE90E0160
:1050700001F10043149015934FF02D0A9CE51D9B00
:10508000D1E5002B2EDDBBF1000F07D1029BDE071F
:1050900004D40C9A079222EAE273DFE50C9B0BF131
:1050A00001063344079323EAE373D7E5DDE91401EE
:1050B00000220023FCF788FF00287FF4F7AEC7F139
:1050C000010719973E449BE50C9B0133079323EAA4
:1050D000E373C3E5303330228DF86F308DF86E20E6
:1050E0001CAB96E7BBF1000F1BD1029BD80718D46D
:1050F00001230793B2E5029B13F0010391D10C93B6
:10510000079B23EAE373A9E5089D2E68284604302F
:10511000002E5D780890BEF66CAE4FF0FF36FEF7BD
:1051200068BE0BF10203079323EAE37396E50DF1E2
:105130006E036EE730B4044C0D46134601462A4612
:10514000206830BCFEF7E4BD500400202DE9F04299
:105150000C46ADF58D6DB1F80CE0E769496EB4F819
:105160000E9019911AAD4FF480662EF0020E4FF09A
:10517000000C07976946676A0095049502960596A4
:10518000ADF80CE0ADF80E900997CDF818C00646C2
:10519000FEF7BEFD051E07DB3046694601F008F943
:1051A000002818BF4FF0FF35BDF80C305B0603D563
:1051B000A38943F04003A38128460DF58D6DBDE81A
:1051C000F08200BF38B52F4B1B6805460C4613B163
:1051D0009A6B002A36D0A28993B218070CD52069A1
:1051E000A8B113F001021ED0636900225B42A361E3
:1051F000A260F0B1002038BDD9063BD5580725D4B0
:10520000206942F00803A3819BB20028E9D103F48E
:105210002072B2F5007FE4D02846214601F0B2FBAF
:10522000A3892069DDE7990758BF6269A260002859
:10523000E0D1A3891A06DED543F04003A3814FF0E5
:10524000FF3038BD184601F0C3F9C4E7216B49B1FE
:1052500004F14003994203D0284601F029FAA289BB
:105260000023236322F0240200232069636092B2AA
:105270002060C6E742F0400209232B604FF0FF3068
:10528000A28138BD5004002002690B69934200F3EB
:105290008F802DE9F04F03F1FF3801F1140700F181
:1052A000140B57F828205BF828304FEA880483B0A5
:1052B0000132B3FBF2F90BEB0403009407EB040A91
:1052C0000193B9F1000F3BD000263246BC46DE46C2
:1052D00034465CF8046BDEF80050B3B2360C03FBC6
:1052E000094406FB09F606EB1446A3B2D31AB4B27E
:1052F00013FA85F3C4EB154404EB23449BB243EA51
:105300000443E2454FEA24424EF8043B4FEA164478
:10531000DFD2009B5BF8033093B9019C231F9B45B0
:105320000CD254F8043C4BB9A4F1080302E01A680B
:10533000043B1AB99B4508F1FF38F8D3C0F8108038
:10534000044602F013F900282EDB09F101095D463D
:10535000002357F8041B28688AB29A1A090C12FA1B
:1053600080F2C1EB104303EB224391B241EA0341C7
:10537000BA4545F8041B4FEA2343EAD25BF82820DC
:105380000BEB880382B91A1F93450BD253F8042CF8
:1053900042B9083B02E01A68043B1AB99B4508F180
:1053A000FF38F8D3C4F81080484603B0BDE8F08F4A
:1053B00000207047000000002DE9F04F99B004462E
:1053C0000391016C229D049392468DED000B41B137
:1053D000426C4A60012393408B6001F097FE0023EA
:1053E0002364DDE90023002B994636DB00232B6084
:1053F000A54B1A4609EA0303934217D0DDE900677B
:105400000022002330463946FCF7DEFD80460028A6
:105410002BD0049A01231360239B002B00F0CC8037
:105420009A481860013819B0BDE8F08F049A42F22A
:105430000F731360009B002B00F0A7809448239B00
:10544000002BF0D0C378002B00F0B88000F10803E7
:10545000239A136019B0BDE8F08F019A012322F05E
:1054600000492B60CDF80490C2E7204647EC106B52
:1054700017A916AA02F092F95FEA1955834640F07F
:105480008D80DDF85880179D6FF4826345449D42FE
:10549000C0F29E827F4A521B09FA02F9009A05F275
:1054A000124322FA03F049EA0000FCF7AFFA0123A5
:1054B000013DA1F1F8710F930022774BFCF768F9D9
:1054C0006BA3D3E90023FCF717FB6BA3D3E90023FD
:1054D000FCF760F9064628460F46FCF7A7FA68A3D2
:1054E000D3E90023FCF708FB02460B463046394659
:1054F000FCF750F906460F46FCF798FD3946059033
:10550000002230460023FCF769FD002840F0AB8103
:10551000059B162B00F2A481059A604B03EBC20396
:10552000D3E90001DDE90023FCF776FD002800F057
:105530005582059B013B059300230D93C5EB0805A0
:105540006B1E069300F1A68100230793059B002B99
:10555000C0F29781069A0C931146194400230691D4
:105560000A93039B092B2BD8052B40F37386043B2E
:1055700003930027039B023B032B00F25186DFE8D5
:1055800013F0D103C403B6026606414B444AC9F383
:105590001300002814BF1846104650E7C7F3130342
:1055A00043F07F51CDF83C803046A5F2FF3541F401
:1055B0004011DDF858807FE73A4834E7C31C47E7DD
:1055C0000021616420468A46039101F079FD4FF085
:1055D000FF3308930E930123099020640B93179BCC
:1055E000002BC0F2D380059A0E2A00F3CF802B4BFC
:1055F000BAF1000F03EBC203D3E90089C0F295832F
:10560000DDE9006742464B4630463946FCF79EFBD3
:10561000FCF70CFD8246FCF709FA42464B46FCF7C4
:105620006BFA0B46024639463046FCF7B1F8099D45
:105630000AF130032B70089B012B06460F4605F13B
:10564000010563D00022184BFCF756FA0022002314
:1056500006460F46FCF7B8FC002840F08480CDF8E1
:1056600000B00394DDF824B0089C2AE0AFF300807A
:1056700061436F63A787D23FB3C8608B288AC63F58
:10568000FB799F501344D33F0000F07FD5BF000843
:1056900004C000080EFCFFFF0000F83F20C0000817
:1056A000F8BF0008D4BF000800002440FCF724FA2B
:1056B0000022002306460F46FCF786FC002840F037
:1056C000E48342464B4630463946FCF73FFBFCF745
:1056D000ADFC8246FCF7AAF942464B46FCF70CFAB1
:1056E00002460B4630463946FCF752F80AF1300EB6
:1056F00005F801EBCBEB050E744506460F464FF05F
:105700000002B74BD2D1DDF800B0039C32463B46D5
:1057100030463946FCF73EF806460F4640464946B5
:1057200032463B46FCF75AFC48B9404649463246A9
:105730003B46FCF749FCB0B11AF0010F13D015F845
:10574000018C09996B1E04E08B4200F0488413F829
:10575000018DB8F1390F03F101051A46F4D008F1B3
:105760000103DBB213702046594601F0CFFC002242
:10577000059B2A70049A01331360239B002B00F0D1
:105780004B8309981D6019B0BDE8F08F0B9A002A71
:1057900000F08580039A012A40F30A83089B5F1E6C
:1057A0000A9BBB42C0F2A683DF1B089B002BC0F202
:1057B000A484079D089B079A1A440792069A2046DC
:1057C0001A440121069201F087FD064665B106994B
:1057D00000290B4608DDA942079AA8BF2B46D21A1A
:1057E000ED1ACB1A079206930A9B002B1ADD0B9B2E
:1057F000002B00F07883002F10DD31463A4620461A
:1058000001F00EFE06465A463146204601F06EFD76
:1058100059468046204601F079FCC3460A9BDA1BB4
:1058200040F0A5822046012101F056FD0C9B002B83
:10583000804638DD01461A46204601F0F1FD039B03
:10584000012B804640F399824FF00009D8F81030C0
:1058500008EB8303186901F0F1FCC0F120002CE093
:1058600001230D936AE60598FCF7E0F832463B46C3
:10587000FCF7AAFB00287FF44BAE059B013B059388
:1058800046E6079A059BD21A5B420A9300230792C9
:105890000C9366E65B4207930023069356E60A9F45
:1058A000079D0B9E92E7039B012B40F3B8824FF0BC
:1058B00000090C9B002BC9D10120069B184410F055
:1058C0001F0000F08380C0F12003042B40F3B98453
:1058D000C0F11C00079B03440793069B0344054447
:1058E0000693079B002B05DD59461A46204601F01A
:1058F000E7FD8346069B002B05DD41461A46204600
:1059000001F0DEFD80460D9B002B40F06A82089B73
:10591000002B40F397820B9B002B71D1DDF8249074
:10592000089F4D4602E001F0FBFB83464146584686
:10593000FFF7AAFC00F1300C05F801CBC9EB050319
:10594000BB42204659464FF00A024FF00003EADB03
:10595000099B089A012AACBF9B1801331D464FF0E2
:10596000000A594601222046CDF800C001F0A8FDEA
:105970004146834601F0FAFD0028DDF800C040F3FF
:10598000EF8215F8012C09996B1E04E08B4200F0A0
:10599000758213F8012D392A03F10105F6D0013281
:1059A0001A704146204601F0B1FB002E3FF4DBAEF9
:1059B000BAF1000F05D0B24503D05146204601F0A0
:1059C000A5FB3146204601F0A1FBCCE61C2081E777
:1059D000044B009A5B1B02FA03F066E50D90ADE5FF
:1059E00000002440EEFBFFFF3146002320460A2240
:1059F00001F096FB0E9B002B064640F30B840893A8
:105A0000002D05DD31462A46204601F059FD0646A7
:105A1000B9F1000F40F0ED82B146089B099A013BB5
:105A2000D3180893009B03F001030A9317464146DD
:105A30005846FFF729FC31460546584601F096FDC9
:105A40004A4682464146204601F0B4FDC2680346FC
:105A500005F1300C002A40F0BA8119465846CDF8BD
:105A60001CC0069301F082FD069B0090194620465B
:105A700001F04CFB009ADDF81CC02AB9039B1BB94E
:105A80000A9B002B00F0AA83BAF1000FC0F24A82F1
:105A900005D1039B1BB90A9B002B00F04382002A0F
:105AA00000F3BB82089B87F800C007F1010A9F4200
:105AB000554600F0BE8259460A220023204601F0D6
:105AC0002FFB4E458346314620464FF00A024FF0E9
:105AD000000300F0768101F023FB494606460A22C6
:105AE0002046002301F01CFB574681469FE7012317
